{
  "_format": "hh-sol-artifact-1",
  "contractName": "TripleFlashloan",
  "sourceName": "EnhancedQuantumTrading/contracts/TripleFlashloan.sol",
  "abi": [
    {
      "inputs": [
        {
          "internalType": "address",
          "name": "_curvePool",
          "type": "address"
        },
        {
          "internalType": "address",
          "name": "_dodoPool",
          "type": "address"
        }
      ],
      "stateMutability": "nonpayable",
      "type": "constructor"
    },
    {
      "anonymous": false,
      "inputs": [
        {
          "indexed": true,
          "internalType": "address",
          "name": "caller",
          "type": "address"
        },
        {
          "indexed": false,
          "internalType": "uint256",
          "name": "aaveAmount",
          "type": "uint256"
        },
        {
          "indexed": false,
          "internalType": "uint256",
          "name": "balancerAmount",
          "type": "uint256"
        },
        {
          "indexed": false,
          "internalType": "uint256",
          "name": "curveAmount",
          "type": "uint256"
        },
        {
          "indexed": false,
          "internalType": "uint256",
          "name": "dodoAmount",
          "type": "uint256"
        }
      ],
      "name": "FlashloanExecuted",
      "type": "event"
    },
    {
      "anonymous": false,
      "inputs": [
        {
          "indexed": true,
          "internalType": "address",
          "name": "previousOwner",
          "type": "address"
        },
        {
          "indexed": true,
          "internalType": "address",
          "name": "newOwner",
          "type": "address"
        }
      ],
      "name": "OwnershipTransferred",
      "type": "event"
    },
    {
      "inputs": [
        {
          "internalType": "address",
          "name": "sender",
          "type": "address"
        },
        {
          "internalType": "uint256",
          "name": "baseAmount",
          "type": "uint256"
        },
        {
          "internalType": "uint256",
          "name": "quoteAmount",
          "type": "uint256"
        },
        {
          "internalType": "bytes",
          "name": "data",
          "type": "bytes"
        }
      ],
      "name": "DPPFlashLoanCall",
      "outputs": [],
      "stateMutability": "nonpayable",
      "type": "function"
    },
    {
      "inputs": [
        {
          "internalType": "address",
          "name": "sender",
          "type": "address"
        },
        {
          "internalType": "uint256",
          "name": "baseAmount",
          "type": "uint256"
        },
        {
          "internalType": "uint256",
          "name": "quoteAmount",
          "type": "uint256"
        },
        {
          "internalType": "bytes",
          "name": "data",
          "type": "bytes"
        }
      ],
      "name": "DSPFlashLoanCall",
      "outputs": [],
      "stateMutability": "nonpayable",
      "type": "function"
    },
    {
      "inputs": [
        {
          "internalType": "address",
          "name": "sender",
          "type": "address"
        },
        {
          "internalType": "uint256",
          "name": "baseAmount",
          "type": "uint256"
        },
        {
          "internalType": "uint256",
          "name": "quoteAmount",
          "type": "uint256"
        },
        {
          "internalType": "bytes",
          "name": "data",
          "type": "bytes"
        }
      ],
      "name": "DVMFlashLoanCall",
      "outputs": [],
      "stateMutability": "nonpayable",
      "type": "function"
    },
    {
      "inputs": [],
      "name": "aavePool",
      "outputs": [
        {
          "internalType": "address",
          "name": "",
          "type": "address"
        }
      ],
      "stateMutability": "view",
      "type": "function"
    },
    {
      "inputs": [],
      "name": "balancerVault",
      "outputs": [
        {
          "internalType": "address",
          "name": "",
          "type": "address"
        }
      ],
      "stateMutability": "view",
      "type": "function"
    },
    {
      "inputs": [
        {
          "internalType": "address[]",
          "name": "assets",
          "type": "address[]"
        },
        {
          "internalType": "uint256[]",
          "name": "amounts",
          "type": "uint256[]"
        }
      ],
      "name": "curveFlashLoanCallback",
      "outputs": [],
      "stateMutability": "nonpayable",
      "type": "function"
    },
    {
      "inputs": [],
      "name": "curvePool",
      "outputs": [
        {
          "internalType": "address",
          "name": "",
          "type": "address"
        }
      ],
      "stateMutability": "view",
      "type": "function"
    },
    {
      "inputs": [],
      "name": "dodoPool",
      "outputs": [
        {
          "internalType": "address",
          "name": "",
          "type": "address"
        }
      ],
      "stateMutability": "view",
      "type": "function"
    },
    {
      "inputs": [],
      "name": "emergencyWithdraw",
      "outputs": [],
      "stateMutability": "nonpayable",
      "type": "function"
    },
    {
      "inputs": [
        {
          "internalType": "address[]",
          "name": "assets",
          "type": "address[]"
        },
        {
          "internalType": "uint256[]",
          "name": "amounts",
          "type": "uint256[]"
        },
        {
          "internalType": "uint256[]",
          "name": "premiums",
          "type": "uint256[]"
        },
        {
          "internalType": "address",
          "name": "",
          "type": "address"
        },
        {
          "internalType": "bytes",
          "name": "",
          "type": "bytes"
        }
      ],
      "name": "executeOperation",
      "outputs": [
        {
          "internalType": "bool",
          "name": "",
          "type": "bool"
        }
      ],
      "stateMutability": "nonpayable",
      "type": "function"
    },
    {
      "inputs": [
        {
          "internalType": "address[]",
          "name": "aaveAssets",
          "type": "address[]"
        },
        {
          "internalType": "uint256[]",
          "name": "aaveAmounts",
          "type": "uint256[]"
        },
        {
          "internalType": "address[]",
          "name": "balancerAssets",
          "type": "address[]"
        },
        {
          "internalType": "uint256[]",
          "name": "balancerAmounts",
          "type": "uint256[]"
        },
        {
          "internalType": "address[]",
          "name": "curveAssets",
          "type": "address[]"
        },
        {
          "internalType": "uint256[]",
          "name": "curveAmounts",
          "type": "uint256[]"
        },
        {
          "internalType": "uint256",
          "name": "dodoBaseAmount",
          "type": "uint256"
        },
        {
          "internalType": "uint256",
          "name": "dodoQuoteAmount",
          "type": "uint256"
        }
      ],
      "name": "executeTripleFlashloan",
      "outputs": [],
      "stateMutability": "nonpayable",
      "type": "function"
    },
    {
      "inputs": [],
      "name": "isActive",
      "outputs": [
        {
          "internalType": "bool",
          "name": "",
          "type": "bool"
        }
      ],
      "stateMutability": "view",
      "type": "function"
    },
    {
      "inputs": [],
      "name": "owner",
      "outputs": [
        {
          "internalType": "address",
          "name": "",
          "type": "address"
        }
      ],
      "stateMutability": "view",
      "type": "function"
    },
    {
      "inputs": [
        {
          "internalType": "address[]",
          "name": "tokens",
          "type": "address[]"
        },
        {
          "internalType": "uint256[]",
          "name": "amounts",
          "type": "uint256[]"
        },
        {
          "internalType": "uint256[]",
          "name": "",
          "type": "uint256[]"
        },
        {
          "internalType": "bytes",
          "name": "",
          "type": "bytes"
        }
      ],
      "name": "receiveFlashLoan",
      "outputs": [],
      "stateMutability": "nonpayable",
      "type": "function"
    },
    {
      "inputs": [],
      "name": "renounceOwnership",
      "outputs": [],
      "stateMutability": "nonpayable",
      "type": "function"
    },
    {
      "inputs": [
        {
          "internalType": "bool",
          "name": "status",
          "type": "bool"
        }
      ],
      "name": "toggleActive",
      "outputs": [],
      "stateMutability": "nonpayable",
      "type": "function"
    },
    {
      "inputs": [],
      "name": "totalFlashloans",
      "outputs": [
        {
          "internalType": "uint256",
          "name": "",
          "type": "uint256"
        }
      ],
      "stateMutability": "view",
      "type": "function"
    },
    {
      "inputs": [
        {
          "internalType": "address",
          "name": "newOwner",
          "type": "address"
        }
      ],
      "name": "transferOwnership",
      "outputs": [],
      "stateMutability": "nonpayable",
      "type": "function"
    },
    {
      "inputs": [
        {
          "internalType": "address",
          "name": "caller",
          "type": "address"
        },
        {
          "internalType": "bool",
          "name": "status",
          "type": "bool"
        }
      ],
      "name": "whitelistCaller",
      "outputs": [],
      "stateMutability": "nonpayable",
      "type": "function"
    },
    {
      "inputs": [
        {
          "internalType": "address",
          "name": "",
          "type": "address"
        }
      ],
      "name": "whitelistedCallers",
      "outputs": [
        {
          "internalType": "bool",
          "name": "",
          "type": "bool"
        }
      ],
      "stateMutability": "view",
      "type": "function"
    }
  ],
  "bytecode": "0x60803461012157601f6115a538819003918201601f19168301916001600160401b0383118484101761012657808492604094855283398101031261012157610052602061004b8361013c565b920161013c565b60008054336001600160a01b031980831682178455604080519695600195919491936001600160a01b039283167f8be0079c531659141344cd1fd0a4f28419497f9722a3daafe3b4186f6b6457e08680a385805573794a61358d6845594f94dc1db02a252b5b4814ad83600254161760025573ba12222222228d8ba445958a75a0704d566bf2c88360035416176003558160ff19978789600754161760075516836004541617600455169060055416176005553381526006602052209182541617905561145490816101518239f35b600080fd5b634e487b7160e01b600052604160045260246000fd5b51906001600160a01b03821682036101215756fe608060408181526004918236101561001657600080fd5b600092833560e01c918263158274a514610d2b57508163218751b214610d0357816322f3e2d414610cdf5781634d6f88c114610cc0578163715018a614610c635781637773432414610b365781637ed1f1dd146104985781638da5cb5b14610b0e578163920f5c841461098457816398b208631461095b578163a03e4bc314610932578163d5b9979714610498578163db2e21bc146108d957838263e9e44bc31461049d57508163eb2021c314610498578163f04f2707146102a2578163f2fde38b146101d1578163f8796d8e1461017f578163fbe0508c14610143575063ffc97ce91461010357600080fd5b3461013f57602036600319011261013f5760209160ff9082906001600160a01b0361012c610db4565b1681526006855220541690519015158152f35b5080fd5b83903461013f57602036600319011261013f573580151580910361017a5761016961124c565b60ff80196007541691161760075580f35b600080fd5b50503461013f578060031936011261013f57610199610db4565b906024359182151580930361017a576101b061124c565b60018060a01b03168352600660205282209060ff8019835416911617905580f35b90503461029e57602036600319011261029e576101ec610db4565b906101f561124c565b6001600160a01b0391821692831561024c575050600054826bffffffffffffffffffffffff60a01b821617600055167f8be0079c531659141344cd1fd0a4f28419497f9722a3daafe3b4186f6b6457e0600080a380f35b906020608492519162461bcd60e51b8352820152602660248201527f4f776e61626c653a206e6577206f776e657220697320746865207a65726f206160448201526564647265737360d01b6064820152fd5b8280fd5b90503461029e57608036600319011261029e5767ffffffffffffffff908035828111610494576102d59036908301610dca565b92602435838111610490576102ed9036908401610e38565b9360443584811161048c576103059036908501610e38565b5060643584811161048c573660238201121561048c5780840135948511610479578251602095889291610341601f8301601f1916890182610d7a565b81815236602483850101116104755781602489940184830137010152600380546001600160a01b039491908516330361043257875b835181101561042e576103d7878761038e8488611338565b5116888554169061039f858d611338565b51895163095ea7b360e01b81526001600160a01b0390931688840190815260208101919091529193849283918f918391604090910190565b03925af1801561042457906103f292916103f7575b5061138c565b610376565b61041690893d8b1161041d575b61040e8183610d7a565b8101906113f6565b50386103ec565b503d610404565b86513d8c823e3d90fd5b8880f35b835162461bcd60e51b8152808301879052601760248201527f496e76616c69642042616c616e6365722063616c6c65720000000000000000006044820152606490fd5b8380fd5b634e487b7160e01b875260418452602487fd5b8680fd5b8580fd5b8480fd5b610ec4565b9150913461013f5761010036600319011261013f5767ffffffffffffffff908335828111610475576104d29036908601610dca565b936024908135848111610490576104ec9036908301610e38565b90604480358681116108d5576105059036908401610dca565b9360649182358881116108095761051f9036908601610e38565b996084358981116108d1576105379036908701610dca565b60a435998a116108d15761055060069a36908801610e38565b9760ff8a60c4359d33815260209d8e52205416156108975760ff600754161561085f5760026001541461081e579161061b8a8f98979695948f6105ff8f92966105ef61060f938f60c09a6105cf6105df9260026001558a519d8e9a8b01526105bc8d60e08c01906112a4565b90601f199b8c8c840301908c01526112e1565b90898983030160608a01526112a4565b90878783030160808801526112e1565b90858583030160a08601526112a4565b838382030160c08401528d6112e1565b03908101845283610d7a565b6005548a51632512469560e11b81526001600160a01b0392918316918d828a81865afa918215610814579084918b936107d2575b5061065a8291611315565b511691161460001461074557506005541691823b1561048c5786956106ab8d936080899889958f519b8c9a8b998a98633429253960e21b8a528901528701523090860152840152608483019061134c565b03925af1801561073b57610727575b50506106e16106da6106e8925b6106d260085461138c565b600855611315565b5196611315565b5191611315565b5192825195865285015283015260608201527f9c940dcb8c7baa368ef8a0b74d246e2fc51c1e2a4306c6d679591212661847ac60803392a26001805580f35b61073090610d50565b61048c5786386106ba565b85513d84823e3d90fd5b80949593979691503b156104905761078c869392608085948d519a8b998a988997633429253960e21b895288015260e435908701523090860152840152608483019061134c565b03925af180156107c8576107ab575b506106e16106da6106e8926106c7565b6106da6106e892986107bf6106e193610d50565b9892505061079b565b84513d8a823e3d90fd5b8f809294508193503d831161080d575b6107ec8183610d7a565b81010312610809575183811681036108095790839061065a61064f565b8980fd5b503d6107e2565b8d513d8c823e3d90fd5b50885162461bcd60e51b81528087018b9052601f818601527f5265656e7472616e637947756172643a207265656e7472616e742063616c6c00818501528590fd5b50885162461bcd60e51b81528087018b90526014818601527310dbdb9d1c9858dd0819195858dd1a5d985d195960621b818501528590fd5b50885162461bcd60e51b81528087018b90526016818601527510d85b1b195c881b9bdd081dda1a5d195b1a5cdd195960521b818501528590fd5b8a80fd5b8780fd5b50503461013f578160031936011261013f576108f361124c565b8180808060018060a01b038154164790828215610929575bf11561091f575060ff196007541660075580f35b51903d90823e3d90fd5b506108fc61090b565b50503461013f578160031936011261013f5760025490516001600160a01b039091168152602090f35b50503461013f578160031936011261013f5760055490516001600160a01b039091168152602090f35b90503461029e5760a036600319011261029e5767ffffffffffffffff908035828111610494576109b7903690830161121b565b91909260249283358281116108d5576109d3903690850161121b565b604495919535848111610809576109ed903690870161121b565b9490936001600160a01b039160643583811603610b0a57608435908111610b0a57610a1b9036908901610e96565b50508a5b818110610a305760208b5160018152f35b610a3b81838c61140e565b35838116809103610b0657836002541690610a5783878d61140e565b35610a63848b8b61140e565b358101809111610af457610aaa8f9493928f928d935196878094819363095ea7b360e01b83526020988998840160209093929193604081019460018060a01b031681520152565b03925af1928315610ae857610ac593610aca575b505061138c565b610a1f565b81610ae092903d1061041d5761040e8183610d7a565b503880610abe565b8e8e51903d90823e3d90fd5b634e487b7160e01b8f5260118b52878ffd5b8c80fd5b8b80fd5b50503461013f578160031936011261013f57905490516001600160a01b039091168152602090f35b90503461029e578160031936011261029e5767ffffffffffffffff91813583811161049457610b689036908401610dca565b9260243590811161049457610b809036908401610e38565b82546001600160a01b03949193919085163303610c295790859291835b8151811015610c255786610bb18284611338565b51168784541690610bc28389611338565b51865163095ea7b360e01b81526001600160a01b03909316868401908152602081810192909252909291839183919082908b90829060400103925af18015610c1b5790610c16939291610aca57505061138c565b610b9d565b86513d89823e3d90fd5b8480f35b506020606492519162461bcd60e51b8352820152601460248201527324b73b30b634b21021bab93b329031b0b63632b960611b6044820152fd5b8334610cbd5780600319360112610cbd57610c7c61124c565b80546001600160a01b03198116825581906001600160a01b03167f8be0079c531659141344cd1fd0a4f28419497f9722a3daafe3b4186f6b6457e08280a380f35b80fd5b50503461013f578160031936011261013f576020906008549051908152f35b50503461013f578160031936011261013f5760209060ff6007541690519015158152f35b90503461029e578260031936011261029e575490516001600160a01b03909116815260209150f35b84903461013f578160031936011261013f576003546001600160a01b03168152602090f35b67ffffffffffffffff8111610d6457604052565b634e487b7160e01b600052604160045260246000fd5b90601f8019910116810190811067ffffffffffffffff821117610d6457604052565b67ffffffffffffffff8111610d645760051b60200190565b600435906001600160a01b038216820361017a57565b81601f8201121561017a57803591610de183610d9c565b92610def6040519485610d7a565b808452602092838086019260051b82010192831161017a578301905b828210610e19575050505090565b81356001600160a01b038116810361017a578152908301908301610e0b565b81601f8201121561017a57803591610e4f83610d9c565b92610e5d6040519485610d7a565b808452602092838086019260051b82010192831161017a578301905b828210610e87575050505090565b81358152908301908301610e79565b9181601f8401121561017a5782359167ffffffffffffffff831161017a576020838186019501011161017a57565b3461017a5760031960803682011261017a576001600160a01b0390600480358381160361017a5767ffffffffffffffff9060643582811161017a57610f0c9036908301610e96565b94909260055495826000971633036111e157840160c08582031261048c5784358281116108d55781610f3f918701610dca565b90602096878701358481116108095782610f5a918901610e38565b9360409788810135828111610b0a5784610f75918301610dca565b906060810135838111610b065785610f8e918301610e38565b9460808201358481116111dd5781610fa7918401610dca565b9360a08301359081116111dd57610fbe9201610e38565b928b8a89600254168d8a51610fde610fd582610d9c565b94519485610d7a565b808452610fed601f1991610d9c565b01903690840137803b1561029e578b838f8f96826110568f978f98611046906110369c519c8d9b8c9a63ab9c4b5d60e01b8c5230908c015260e060248c015260e48b01906112a4565b90868a83030160448b01526112e1565b90848883030160648901526112e1565b30608487015285810392830160a4870152528260c485015201925af180156111d3576111bc575b50908a9291876003541690813b156104945789956110b5928692838e51809681958294632e1c224f60e11b9d8e8552309085016113b1565b03925af180156111b25790849161119e575b50508688541690813b1561047557836110ef958b519687958694859384528d309085016113b1565b03925af1801561119457611180575b50918693918697611123836111166111559a97611315565b5116936005541692611315565b51875163a9059cbb60e01b81526001600160a01b03909316948301948552602085015290968793849291839160400190565b03925af191821561091f57505061116857005b8161117e92903d1061041d5761040e8183610d7a565b005b61118a8891610d50565b61048c57386110fe565b86513d8a823e3d90fd5b6111a790610d50565b61029e5782386110c7565b8a513d86823e3d90fd5b6111ca909b9193929b610d50565b9990913861107d565b8a513d8e823e3d90fd5b8d80fd5b60405162461bcd60e51b8152602081860152601360248201527224b73b30b634b2102227a2279031b0b63632b960691b6044820152606490fd5b9181601f8401121561017a5782359167ffffffffffffffff831161017a576020808501948460051b01011161017a57565b6000546001600160a01b0316330361126057565b606460405162461bcd60e51b815260206004820152602060248201527f4f776e61626c653a2063616c6c6572206973206e6f7420746865206f776e65726044820152fd5b90815180825260208080930193019160005b8281106112c4575050505090565b83516001600160a01b0316855293810193928101926001016112b6565b90815180825260208080930193019160005b828110611301575050505090565b8351855293810193928101926001016112f3565b8051156113225760200190565b634e487b7160e01b600052603260045260246000fd5b80518210156113225760209160051b010190565b919082519283825260005b848110611378575050826000602080949584010152601f8019910116010190565b602081830181015184830182015201611357565b600019811461139b5760010190565b634e487b7160e01b600052601160045260246000fd5b91926113d76020946113e59360018060a01b0316855260808686015260808501906112a4565b9083820360408501526112e1565b906060818303910152600081520190565b9081602091031261017a5751801515810361017a5790565b91908110156113225760051b019056fea26469706673582212200b1dcfa3b549d662d11f4ac9442e20f15a46a50be3d1a437086fa42c84e89ff964736f6c63430008140033",
  "linkReferences": {},
  "deployedLinkReferences": {}
}