{
  "_format": "hh-sol-artifact-1",
  "contractName": "X3STAR",
  "sourceName": "EnhancedQuantumTrading/contracts/X3STAR.sol",
  "abi": [
    {
      "inputs": [
        {
          "internalType": "address",
          "name": "_quickSwapRouter",
          "type": "address"
        },
        {
          "internalType": "address",
          "name": "_botAddress",
          "type": "address"
        }
      ],
      "stateMutability": "nonpayable",
      "type": "constructor"
    },
    {
      "anonymous": false,
      "inputs": [
        {
          "indexed": true,
          "internalType": "address",
          "name": "owner",
          "type": "address"
        },
        {
          "indexed": true,
          "internalType": "address",
          "name": "spender",
          "type": "address"
        },
        {
          "indexed": false,
          "internalType": "uint256",
          "name": "value",
          "type": "uint256"
        }
      ],
      "name": "Approval",
      "type": "event"
    },
    {
      "anonymous": false,
      "inputs": [
        {
          "indexed": true,
          "internalType": "address",
          "name": "previousOwner",
          "type": "address"
        },
        {
          "indexed": true,
          "internalType": "address",
          "name": "newOwner",
          "type": "address"
        }
      ],
      "name": "OwnershipTransferred",
      "type": "event"
    },
    {
      "anonymous": false,
      "inputs": [
        {
          "indexed": true,
          "internalType": "address",
          "name": "from",
          "type": "address"
        },
        {
          "indexed": true,
          "internalType": "address",
          "name": "to",
          "type": "address"
        },
        {
          "indexed": false,
          "internalType": "uint256",
          "name": "value",
          "type": "uint256"
        }
      ],
      "name": "Transfer",
      "type": "event"
    },
    {
      "inputs": [
        {
          "internalType": "address",
          "name": "owner",
          "type": "address"
        },
        {
          "internalType": "address",
          "name": "spender",
          "type": "address"
        }
      ],
      "name": "allowance",
      "outputs": [
        {
          "internalType": "uint256",
          "name": "",
          "type": "uint256"
        }
      ],
      "stateMutability": "view",
      "type": "function"
    },
    {
      "inputs": [
        {
          "internalType": "address",
          "name": "spender",
          "type": "address"
        },
        {
          "internalType": "uint256",
          "name": "amount",
          "type": "uint256"
        }
      ],
      "name": "approve",
      "outputs": [
        {
          "internalType": "bool",
          "name": "",
          "type": "bool"
        }
      ],
      "stateMutability": "nonpayable",
      "type": "function"
    },
    {
      "inputs": [
        {
          "internalType": "address",
          "name": "account",
          "type": "address"
        }
      ],
      "name": "balanceOf",
      "outputs": [
        {
          "internalType": "uint256",
          "name": "",
          "type": "uint256"
        }
      ],
      "stateMutability": "view",
      "type": "function"
    },
    {
      "inputs": [],
      "name": "botAddress",
      "outputs": [
        {
          "internalType": "address",
          "name": "",
          "type": "address"
        }
      ],
      "stateMutability": "view",
      "type": "function"
    },
    {
      "inputs": [],
      "name": "decimals",
      "outputs": [
        {
          "internalType": "uint8",
          "name": "",
          "type": "uint8"
        }
      ],
      "stateMutability": "view",
      "type": "function"
    },
    {
      "inputs": [
        {
          "internalType": "address",
          "name": "spender",
          "type": "address"
        },
        {
          "internalType": "uint256",
          "name": "subtractedValue",
          "type": "uint256"
        }
      ],
      "name": "decreaseAllowance",
      "outputs": [
        {
          "internalType": "bool",
          "name": "",
          "type": "bool"
        }
      ],
      "stateMutability": "nonpayable",
      "type": "function"
    },
    {
      "inputs": [
        {
          "internalType": "address",
          "name": "router",
          "type": "address"
        },
        {
          "internalType": "uint256",
          "name": "amountIn",
          "type": "uint256"
        },
        {
          "internalType": "uint256",
          "name": "amountOutMin",
          "type": "uint256"
        },
        {
          "internalType": "uint256",
          "name": "deadline",
          "type": "uint256"
        }
      ],
      "name": "executeSandwichTrade",
      "outputs": [],
      "stateMutability": "payable",
      "type": "function"
    },
    {
      "inputs": [
        {
          "internalType": "address",
          "name": "spender",
          "type": "address"
        },
        {
          "internalType": "uint256",
          "name": "addedValue",
          "type": "uint256"
        }
      ],
      "name": "increaseAllowance",
      "outputs": [
        {
          "internalType": "bool",
          "name": "",
          "type": "bool"
        }
      ],
      "stateMutability": "nonpayable",
      "type": "function"
    },
    {
      "inputs": [],
      "name": "name",
      "outputs": [
        {
          "internalType": "string",
          "name": "",
          "type": "string"
        }
      ],
      "stateMutability": "view",
      "type": "function"
    },
    {
      "inputs": [],
      "name": "owner",
      "outputs": [
        {
          "internalType": "address",
          "name": "",
          "type": "address"
        }
      ],
      "stateMutability": "view",
      "type": "function"
    },
    {
      "inputs": [],
      "name": "quickSwapRouter",
      "outputs": [
        {
          "internalType": "contract IQuickSwapRouter",
          "name": "",
          "type": "address"
        }
      ],
      "stateMutability": "view",
      "type": "function"
    },
    {
      "inputs": [],
      "name": "renounceOwnership",
      "outputs": [],
      "stateMutability": "nonpayable",
      "type": "function"
    },
    {
      "inputs": [],
      "name": "symbol",
      "outputs": [
        {
          "internalType": "string",
          "name": "",
          "type": "string"
        }
      ],
      "stateMutability": "view",
      "type": "function"
    },
    {
      "inputs": [],
      "name": "totalBurned",
      "outputs": [
        {
          "internalType": "uint256",
          "name": "",
          "type": "uint256"
        }
      ],
      "stateMutability": "view",
      "type": "function"
    },
    {
      "inputs": [],
      "name": "totalSupply",
      "outputs": [
        {
          "internalType": "uint256",
          "name": "",
          "type": "uint256"
        }
      ],
      "stateMutability": "view",
      "type": "function"
    },
    {
      "inputs": [
        {
          "internalType": "address",
          "name": "to",
          "type": "address"
        },
        {
          "internalType": "uint256",
          "name": "amount",
          "type": "uint256"
        }
      ],
      "name": "transfer",
      "outputs": [
        {
          "internalType": "bool",
          "name": "",
          "type": "bool"
        }
      ],
      "stateMutability": "nonpayable",
      "type": "function"
    },
    {
      "inputs": [
        {
          "internalType": "address",
          "name": "from",
          "type": "address"
        },
        {
          "internalType": "address",
          "name": "to",
          "type": "address"
        },
        {
          "internalType": "uint256",
          "name": "amount",
          "type": "uint256"
        }
      ],
      "name": "transferFrom",
      "outputs": [
        {
          "internalType": "bool",
          "name": "",
          "type": "bool"
        }
      ],
      "stateMutability": "nonpayable",
      "type": "function"
    },
    {
      "inputs": [
        {
          "internalType": "address",
          "name": "newOwner",
          "type": "address"
        }
      ],
      "name": "transferOwnership",
      "outputs": [],
      "stateMutability": "nonpayable",
      "type": "function"
    }
  ],
  "bytecode": "0x6080346200044e576200126590601f906001600160401b0390601f19388590038481018216830190848211848310176200035257808491604098899485528339810103126200044e57620000538262000453565b9062000063602080940162000453565b926200006e62000468565b946200007962000468565b92865190828211620003525760039182546001998a82811c9216801562000443575b878310146200042d57818c849311620003d7575b5086908c8311600114620003745760009262000368575b505060001982851b1c191690891b1782555b8451928311620003525760049485548981811c9116801562000347575b86821014620003325790818b8695949311620002d8575b5085918b851160011462000270575060009362000264575b505082881b92600019911b1c19161782555b600580546001600160a01b031980821633908117909355895190986001600160a01b03989193909289167f8be0079c531659141344cd1fd0a4f28419497f9722a3daafe3b4186f6b6457e0600080a36006553315620002275750506002546b033b2e3c9fd0803ce8000000928382018092116200021257507fddf252ad1be2c89b69c2b068fc378daa952ba7f163c4a11628f55a4df523b3ef8694939260009260025533835282815289832084815401905589519384523393a3168360075416176007551690600854161760085551610dc990816200049c8239f35b601190634e487b7160e01b6000525260246000fd5b6064928462461bcd60e51b845283015260248201527f45524332303a206d696e7420746f20746865207a65726f2061646472657373006044820152fd5b01519150388062000124565b8a9593929193169287600052866000209360005b88828210620002c15750508511620002a6575b50505050811b01825562000136565b01519060f884600019921b161c191690553880808062000297565b8385015187558d9890960195938401930162000284565b909192935086600052856000208b80870160051c82019288881062000328575b918c918897969594930160051c01915b828110620003185750506200010c565b600081558796508c910162000308565b92508192620002f8565b602287634e487b7160e01b6000525260246000fd5b90607f1690620000f5565b634e487b7160e01b600052604160045260246000fd5b015190503880620000c6565b90848c94169186600052886000209260005b8a828210620003c05750508411620003a7575b505050811b018255620000d8565b015160001983871b60f8161c1916905538808062000399565b8385015186558f9790950194938401930162000386565b90915084600052866000208c80850160051c82019289861062000423575b918d91869594930160051c01915b82811062000413575050620000af565b600081558594508d910162000403565b92508192620003f5565b634e487b7160e01b600052602260045260246000fd5b91607f16916200009b565b600080fd5b51906001600160a01b03821682036200044e57565b60408051919082016001600160401b03811183821017620003525760405260068252652c19a9aa20a960d11b602083015256fe6080604081815260048036101561001557600080fd5b600092833560e01c90816306fdde031461092357508063095ea7b3146108f957806318160ddd146108da57806323b872dd14610810578063313ce567146107f4578063395093511461078d5780634bf4f4231461076457806370a082311461072d578063715018a6146106d05780638da5cb5b146106a757806395d89b41146105a3578063a457c2d7146104fc578063a9059cbb146104cb578063b8da7bd31461024c578063d89135cd1461022d578063dd62ed3e146101e4578063e189eb42146101b75763f2fde38b146100e957600080fd5b346101b35760203660031901126101b357610102610a62565b9061010b610a93565b6001600160a01b03918216928315610161575050600554826bffffffffffffffffffffffff60a01b821617600555167f8be0079c531659141344cd1fd0a4f28419497f9722a3daafe3b4186f6b6457e08380a380f35b906020608492519162461bcd60e51b8352820152602660248201527f4f776e61626c653a206e6577206f776e657220697320746865207a65726f206160448201526564647265737360d01b6064820152fd5b8280fd5b5050346101e057816003193601126101e05760075490516001600160a01b039091168152602090f35b5080fd5b5050346101e057806003193601126101e05780602092610202610a62565b61020a610a7d565b6001600160a01b0391821683526001865283832091168252845220549051908152f35b5050346101e057816003193601126101e0576020906009549051908152f35b5060803660031901126101b357610261610a62565b506002600654146104895760026006556008546001600160a01b03908116330361045b5782519267ffffffffffffffff9260608501848111868210176104485782526002855260209384860195833688378051156104355773eeeeeeeeeeeeeeeeeeeeeeeeeeeeeeeeeeeeeeee87528051966001978810156104225790889130868301528660075416908651978893637ff36ab560e01b8552608485019060443589870152608060248701525180915260a48501929186905b8d8d8484106103fe5750505050505082809133604483015260643560648301520391602435905af180156103f457610355575b868660065580f35b3d8088863e6103648186610aeb565b84019385818603126103ec578051908282116103f057019184601f840112156103ec5782519182116103d957508481819260051b9451906103a783870183610aeb565b815201928201019283116103d5578301905b8282106103c6578061034d565b815181529083019083016103b9565b8580fd5b634e487b7160e01b885260419052602487fd5b8780fd5b8880fd5b83513d89823e3d90fd5b9295909396985084975081839295511681520195019201928c95938a95939261031a565b634e487b7160e01b895260328452602489fd5b634e487b7160e01b885260328352602488fd5b634e487b7160e01b875260418252602487fd5b506020606492519162461bcd60e51b8352820152600860248201526713db9b1e48189bdd60c21b6044820152fd5b6020606492519162461bcd60e51b8352820152601f60248201527f5265656e7472616e637947756172643a207265656e7472616e742063616c6c006044820152fd5b5050346101e057806003193601126101e0576020906104f56104eb610a62565b6024359033610b23565b5160018152f35b5082346105a057826003193601126105a057610516610a62565b918360243592338152600160205281812060018060a01b038616825260205220549082821061054f576020856104f58585038733610c91565b608490602086519162461bcd60e51b8352820152602560248201527f45524332303a2064656372656173656420616c6c6f77616e63652062656c6f77604482015264207a65726f60d81b6064820152fd5b80fd5b509190346101e057816003193601126101e057805191809380549160019083821c9282851694851561069d575b602095868610811461068a57858952908115610666575060011461060e575b61060a8787610600828c0383610aeb565b5191829182610a19565b0390f35b81529295507f8a35acfbc15ff81a39ae7d344fd709f28e8600b4aa8c65c6b64bfe7fe36bd19b5b828410610653575050508261060a94610600928201019438806105ef565b8054868501880152928601928101610635565b60ff19168887015250505050151560051b83010192506106008261060a38806105ef565b634e487b7160e01b845260228352602484fd5b93607f16936105d0565b5050346101e057816003193601126101e05760055490516001600160a01b039091168152602090f35b83346105a057806003193601126105a0576106e9610a93565b600580546001600160a01b0319811690915581906001600160a01b03167f8be0079c531659141344cd1fd0a4f28419497f9722a3daafe3b4186f6b6457e08280a380f35b5050346101e05760203660031901126101e05760209181906001600160a01b03610755610a62565b16815280845220549051908152f35b5050346101e057816003193601126101e05760085490516001600160a01b039091168152602090f35b5091346105a057816003193601126105a0576107a7610a62565b338252600160209081528383206001600160a01b03831684529052828220546024358101929083106107e1576020846104f5858533610c91565b634e487b7160e01b815260118552602490fd5b5050346101e057816003193601126101e0576020905160128152f35b508290346101e05760603660031901126101e05761082c610a62565b610834610a7d565b91846044359460018060a01b03841681526001602052818120338252602052205490600019820361086e575b6020866104f5878787610b23565b848210610897575091839161088c602096956104f595033383610c91565b919394819350610860565b606490602087519162461bcd60e51b8352820152601d60248201527f45524332303a20696e73756666696369656e7420616c6c6f77616e63650000006044820152fd5b5050346101e057816003193601126101e0576020906002549051908152f35b5050346101e057806003193601126101e0576020906104f5610919610a62565b6024359033610c91565b9291905034610a155783600319360112610a1557600354600181811c9186908281168015610a0b575b60209586861082146109f857508488529081156109d6575060011461097d575b61060a8686610600828b0383610aeb565b929550600383527fc2575a0e9e593c00f959f8c92f12db2869c3395a3b0502d05e2516446f71f85b5b8284106109c3575050508261060a9461060092820101943861096c565b80548685018801529286019281016109a6565b60ff191687860152505050151560051b83010192506106008261060a3861096c565b634e487b7160e01b845260229052602483fd5b93607f169361094c565b8380fd5b6020808252825181830181905290939260005b828110610a4e57505060409293506000838284010152601f8019910116010190565b818101860151848201604001528501610a2c565b600435906001600160a01b0382168203610a7857565b600080fd5b602435906001600160a01b0382168203610a7857565b6005546001600160a01b03163303610aa757565b606460405162461bcd60e51b815260206004820152602060248201527f4f776e61626c653a2063616c6c6572206973206e6f7420746865206f776e65726044820152fd5b90601f8019910116810190811067ffffffffffffffff821117610b0d57604052565b634e487b7160e01b600052604160045260246000fd5b6001600160a01b03908116918215610c3e5716918215610bed57600082815280602052604081205491808310610b9957604082827fddf252ad1be2c89b69c2b068fc378daa952ba7f163c4a11628f55a4df523b3ef958760209652828652038282205586815220818154019055604051908152a3565b60405162461bcd60e51b815260206004820152602660248201527f45524332303a207472616e7366657220616d6f756e7420657863656564732062604482015265616c616e636560d01b6064820152608490fd5b60405162461bcd60e51b815260206004820152602360248201527f45524332303a207472616e7366657220746f20746865207a65726f206164647260448201526265737360e81b6064820152608490fd5b60405162461bcd60e51b815260206004820152602560248201527f45524332303a207472616e736665722066726f6d20746865207a65726f206164604482015264647265737360d81b6064820152608490fd5b6001600160a01b03908116918215610d425716918215610cf25760207f8c5be1e5ebec7d5bd14f71427d1e84f3dd0314c0f7b2291e5b200ac8c7c3b925918360005260018252604060002085600052825280604060002055604051908152a3565b60405162461bcd60e51b815260206004820152602260248201527f45524332303a20617070726f766520746f20746865207a65726f206164647265604482015261737360f01b6064820152608490fd5b60405162461bcd60e51b8152602060048201526024808201527f45524332303a20617070726f76652066726f6d20746865207a65726f206164646044820152637265737360e01b6064820152608490fdfea2646970667358221220558e849ad19234bc56f9e5f50c0cedc46a2dffc0d7c23c1b6e85473d2b3b988764736f6c63430008140033",
  "linkReferences": {},
  "deployedLinkReferences": {}
}